{
  "_format": "hh-sol-artifact-1",
  "contractName": "NFT",
  "sourceName": "contracts/NFT.sol",
  "abi": [
    {
      "inputs": [],
      "stateMutability": "nonpayable",
      "type": "constructor"
    },
    {
      "anonymous": false,
      "inputs": [
        {
          "indexed": true,
          "internalType": "address",
          "name": "owner",
          "type": "address"
        },
        {
          "indexed": true,
          "internalType": "address",
          "name": "approved",
          "type": "address"
        },
        {
          "indexed": true,
          "internalType": "uint256",
          "name": "tokenId",
          "type": "uint256"
        }
      ],
      "name": "Approval",
      "type": "event"
    },
    {
      "anonymous": false,
      "inputs": [
        {
          "indexed": true,
          "internalType": "address",
          "name": "owner",
          "type": "address"
        },
        {
          "indexed": true,
          "internalType": "address",
          "name": "operator",
          "type": "address"
        },
        {
          "indexed": false,
          "internalType": "bool",
          "name": "approved",
          "type": "bool"
        }
      ],
      "name": "ApprovalForAll",
      "type": "event"
    },
    {
      "anonymous": false,
      "inputs": [
        {
          "indexed": true,
          "internalType": "address",
          "name": "from",
          "type": "address"
        },
        {
          "indexed": true,
          "internalType": "address",
          "name": "to",
          "type": "address"
        },
        {
          "indexed": true,
          "internalType": "uint256",
          "name": "tokenId",
          "type": "uint256"
        }
      ],
      "name": "Transfer",
      "type": "event"
    },
    {
      "inputs": [
        {
          "internalType": "address",
          "name": "to",
          "type": "address"
        },
        {
          "internalType": "uint256",
          "name": "tokenId",
          "type": "uint256"
        }
      ],
      "name": "approve",
      "outputs": [],
      "stateMutability": "nonpayable",
      "type": "function"
    },
    {
      "inputs": [
        {
          "internalType": "address",
          "name": "owner",
          "type": "address"
        }
      ],
      "name": "balanceOf",
      "outputs": [
        {
          "internalType": "uint256",
          "name": "",
          "type": "uint256"
        }
      ],
      "stateMutability": "view",
      "type": "function"
    },
    {
      "inputs": [
        {
          "internalType": "uint256",
          "name": "tokenId",
          "type": "uint256"
        }
      ],
      "name": "getApproved",
      "outputs": [
        {
          "internalType": "address",
          "name": "",
          "type": "address"
        }
      ],
      "stateMutability": "view",
      "type": "function"
    },
    {
      "inputs": [
        {
          "internalType": "address",
          "name": "owner",
          "type": "address"
        },
        {
          "internalType": "address",
          "name": "operator",
          "type": "address"
        }
      ],
      "name": "isApprovedForAll",
      "outputs": [
        {
          "internalType": "bool",
          "name": "",
          "type": "bool"
        }
      ],
      "stateMutability": "view",
      "type": "function"
    },
    {
      "inputs": [],
      "name": "name",
      "outputs": [
        {
          "internalType": "string",
          "name": "",
          "type": "string"
        }
      ],
      "stateMutability": "view",
      "type": "function"
    },
    {
      "inputs": [
        {
          "internalType": "uint256",
          "name": "tokenId",
          "type": "uint256"
        }
      ],
      "name": "ownerOf",
      "outputs": [
        {
          "internalType": "address",
          "name": "",
          "type": "address"
        }
      ],
      "stateMutability": "view",
      "type": "function"
    },
    {
      "inputs": [
        {
          "internalType": "string",
          "name": "uri",
          "type": "string"
        },
        {
          "internalType": "address",
          "name": "marketPlaceAddress",
          "type": "address"
        },
        {
          "internalType": "address",
          "name": "creator",
          "type": "address"
        }
      ],
      "name": "safeMint",
      "outputs": [
        {
          "internalType": "uint256",
          "name": "",
          "type": "uint256"
        }
      ],
      "stateMutability": "payable",
      "type": "function"
    },
    {
      "inputs": [
        {
          "internalType": "address",
          "name": "from",
          "type": "address"
        },
        {
          "internalType": "address",
          "name": "to",
          "type": "address"
        },
        {
          "internalType": "uint256",
          "name": "tokenId",
          "type": "uint256"
        }
      ],
      "name": "safeTransferFrom",
      "outputs": [],
      "stateMutability": "nonpayable",
      "type": "function"
    },
    {
      "inputs": [
        {
          "internalType": "address",
          "name": "from",
          "type": "address"
        },
        {
          "internalType": "address",
          "name": "to",
          "type": "address"
        },
        {
          "internalType": "uint256",
          "name": "tokenId",
          "type": "uint256"
        },
        {
          "internalType": "bytes",
          "name": "data",
          "type": "bytes"
        }
      ],
      "name": "safeTransferFrom",
      "outputs": [],
      "stateMutability": "nonpayable",
      "type": "function"
    },
    {
      "inputs": [
        {
          "internalType": "address",
          "name": "operator",
          "type": "address"
        },
        {
          "internalType": "bool",
          "name": "approved",
          "type": "bool"
        }
      ],
      "name": "setApprovalForAll",
      "outputs": [],
      "stateMutability": "nonpayable",
      "type": "function"
    },
    {
      "inputs": [
        {
          "internalType": "bytes4",
          "name": "interfaceId",
          "type": "bytes4"
        }
      ],
      "name": "supportsInterface",
      "outputs": [
        {
          "internalType": "bool",
          "name": "",
          "type": "bool"
        }
      ],
      "stateMutability": "view",
      "type": "function"
    },
    {
      "inputs": [],
      "name": "symbol",
      "outputs": [
        {
          "internalType": "string",
          "name": "",
          "type": "string"
        }
      ],
      "stateMutability": "view",
      "type": "function"
    },
    {
      "inputs": [
        {
          "internalType": "uint256",
          "name": "tokenId",
          "type": "uint256"
        }
      ],
      "name": "tokenURI",
      "outputs": [
        {
          "internalType": "string",
          "name": "",
          "type": "string"
        }
      ],
      "stateMutability": "view",
      "type": "function"
    },
    {
      "inputs": [
        {
          "internalType": "address",
          "name": "from",
          "type": "address"
        },
        {
          "internalType": "address",
          "name": "to",
          "type": "address"
        },
        {
          "internalType": "uint256",
          "name": "tokenId",
          "type": "uint256"
        }
      ],
      "name": "transferFrom",
      "outputs": [],
      "stateMutability": "nonpayable",
      "type": "function"
    }
  ],
  "bytecode": "0x60806040523480156200001157600080fd5b506040518060400160405280600c81526020017f45786368616e6765204e465400000000000000000000000000000000000000008152506040518060400160405280600581526020017f45584e465400000000000000000000000000000000000000000000000000000081525081600090816200008f919062000324565b508060019081620000a1919062000324565b5050506200040b565b600081519050919050565b7f4e487b7100000000000000000000000000000000000000000000000000000000600052604160045260246000fd5b7f4e487b7100000000000000000000000000000000000000000000000000000000600052602260045260246000fd5b600060028204905060018216806200012c57607f821691505b602082108103620001425762000141620000e4565b5b50919050565b60008190508160005260206000209050919050565b60006020601f8301049050919050565b600082821b905092915050565b600060088302620001ac7fffffffffffffffffffffffffffffffffffffffffffffffffffffffffffffffff826200016d565b620001b886836200016d565b95508019841693508086168417925050509392505050565b6000819050919050565b6000819050919050565b600062000205620001ff620001f984620001d0565b620001da565b620001d0565b9050919050565b6000819050919050565b6200022183620001e4565b6200023962000230826200020c565b8484546200017a565b825550505050565b600090565b6200025062000241565b6200025d81848462000216565b505050565b5b8181101562000285576200027960008262000246565b60018101905062000263565b5050565b601f821115620002d4576200029e8162000148565b620002a9846200015d565b81016020851015620002b9578190505b620002d1620002c8856200015d565b83018262000262565b50505b505050565b600082821c905092915050565b6000620002f960001984600802620002d9565b1980831691505092915050565b6000620003148383620002e6565b9150826002028217905092915050565b6200032f82620000aa565b67ffffffffffffffff8111156200034b576200034a620000b5565b5b62000357825462000113565b6200036482828562000289565b600060209050601f8311600181146200039c576000841562000387578287015190505b62000393858262000306565b86555062000403565b601f198416620003ac8662000148565b60005b82811015620003d657848901518255600182019150602085019450602081019050620003af565b86831015620003f65784890151620003f2601f891682620002e6565b8355505b6001600288020188555050505b505050505050565b612cbb806200041b6000396000f3fe6080604052600436106100dd5760003560e01c80636af812821161007f578063a22cb46511610059578063a22cb465146102d7578063b88d4fde14610300578063c87b56dd14610329578063e985e9c514610366576100dd565b80636af812821461023f57806370a082311461026f57806395d89b41146102ac576100dd565b8063095ea7b3116100bb578063095ea7b31461018757806323b872dd146101b057806342842e0e146101d95780636352211e14610202576100dd565b806301ffc9a7146100e257806306fdde031461011f578063081812fc1461014a575b600080fd5b3480156100ee57600080fd5b5061010960048036038101906101049190611b00565b6103a3565b6040516101169190611b48565b60405180910390f35b34801561012b57600080fd5b50610134610485565b6040516101419190611bf3565b60405180910390f35b34801561015657600080fd5b50610171600480360381019061016c9190611c4b565b610517565b60405161017e9190611cb9565b60405180910390f35b34801561019357600080fd5b506101ae60048036038101906101a99190611d00565b61055d565b005b3480156101bc57600080fd5b506101d760048036038101906101d29190611d40565b610674565b005b3480156101e557600080fd5b5061020060048036038101906101fb9190611d40565b6106d4565b005b34801561020e57600080fd5b5061022960048036038101906102249190611c4b565b6106f4565b6040516102369190611cb9565b60405180910390f35b61025960048036038101906102549190611ec8565b61077a565b6040516102669190611f46565b60405180910390f35b34801561027b57600080fd5b5061029660048036038101906102919190611f61565b6107bf565b6040516102a39190611f46565b60405180910390f35b3480156102b857600080fd5b506102c1610876565b6040516102ce9190611bf3565b60405180910390f35b3480156102e357600080fd5b506102fe60048036038101906102f99190611fba565b610908565b005b34801561030c57600080fd5b506103276004803603810190610322919061209b565b61091e565b005b34801561033557600080fd5b50610350600480360381019061034b9190611c4b565b610980565b60405161035d9190611bf3565b60405180910390f35b34801561037257600080fd5b5061038d6004803603810190610388919061211e565b610a92565b60405161039a9190611b48565b60405180910390f35b60007f80ac58cd000000000000000000000000000000000000000000000000000000007bffffffffffffffffffffffffffffffffffffffffffffffffffffffff1916827bffffffffffffffffffffffffffffffffffffffffffffffffffffffff1916148061046e57507f5b5e139f000000000000000000000000000000000000000000000000000000007bffffffffffffffffffffffffffffffffffffffffffffffffffffffff1916827bffffffffffffffffffffffffffffffffffffffffffffffffffffffff1916145b8061047e575061047d82610b26565b5b9050919050565b6060600080546104949061218d565b80601f01602080910402602001604051908101604052809291908181526020018280546104c09061218d565b801561050d5780601f106104e25761010080835404028352916020019161050d565b820191906000526020600020905b8154815290600101906020018083116104f057829003601f168201915b5050505050905090565b600061052282610b90565b6004600083815260200190815260200160002060009054906101000a900473ffffffffffffffffffffffffffffffffffffffff169050919050565b6000610568826106f4565b90508073ffffffffffffffffffffffffffffffffffffffff168373ffffffffffffffffffffffffffffffffffffffff16036105d8576040517f08c379a00000000000000000000000000000000000000000000000000000000081526004016105cf90612230565b60405180910390fd5b8073ffffffffffffffffffffffffffffffffffffffff166105f7610bdb565b73ffffffffffffffffffffffffffffffffffffffff161480610626575061062581610620610bdb565b610a92565b5b610665576040517f08c379a000000000000000000000000000000000000000000000000000000000815260040161065c906122c2565b60405180910390fd5b61066f8383610be3565b505050565b61068561067f610bdb565b82610c9c565b6106c4576040517f08c379a00000000000000000000000000000000000000000000000000000000081526004016106bb90612354565b60405180910390fd5b6106cf838383610d31565b505050565b6106ef8383836040518060200160405280600081525061091e565b505050565b6000806107008361102a565b9050600073ffffffffffffffffffffffffffffffffffffffff168173ffffffffffffffffffffffffffffffffffffffff1603610771576040517f08c379a0000000000000000000000000000000000000000000000000000000008152600401610768906123c0565b60405180910390fd5b80915050919050565b60006107866007611067565b6000610792600761107d565b905061079e838261108b565b6107a881866112a8565b6107b483856001611315565b809150509392505050565b60008073ffffffffffffffffffffffffffffffffffffffff168273ffffffffffffffffffffffffffffffffffffffff160361082f576040517f08c379a000000000000000000000000000000000000000000000000000000000815260040161082690612452565b60405180910390fd5b600360008373ffffffffffffffffffffffffffffffffffffffff1673ffffffffffffffffffffffffffffffffffffffff168152602001908152602001600020549050919050565b6060600180546108859061218d565b80601f01602080910402602001604051908101604052809291908181526020018280546108b19061218d565b80156108fe5780601f106108d3576101008083540402835291602001916108fe565b820191906000526020600020905b8154815290600101906020018083116108e157829003601f168201915b5050505050905090565b61091a610913610bdb565b8383611315565b5050565b61092f610929610bdb565b83610c9c565b61096e576040517f08c379a000000000000000000000000000000000000000000000000000000000815260040161096590612354565b60405180910390fd5b61097a84848484611481565b50505050565b606061098b82610b90565b60006006600084815260200190815260200160002080546109ab9061218d565b80601f01602080910402602001604051908101604052809291908181526020018280546109d79061218d565b8015610a245780601f106109f957610100808354040283529160200191610a24565b820191906000526020600020905b815481529060010190602001808311610a0757829003601f168201915b505050505090506000610a356114dd565b90506000815103610a4a578192505050610a8d565b600082511115610a7f578082604051602001610a679291906124ae565b60405160208183030381529060405292505050610a8d565b610a88846114f4565b925050505b919050565b6000600560008473ffffffffffffffffffffffffffffffffffffffff1673ffffffffffffffffffffffffffffffffffffffff16815260200190815260200160002060008373ffffffffffffffffffffffffffffffffffffffff1673ffffffffffffffffffffffffffffffffffffffff16815260200190815260200160002060009054906101000a900460ff16905092915050565b60007f01ffc9a7000000000000000000000000000000000000000000000000000000007bffffffffffffffffffffffffffffffffffffffffffffffffffffffff1916827bffffffffffffffffffffffffffffffffffffffffffffffffffffffff1916149050919050565b610b998161155c565b610bd8576040517f08c379a0000000000000000000000000000000000000000000000000000000008152600401610bcf906123c0565b60405180910390fd5b50565b600033905090565b816004600083815260200190815260200160002060006101000a81548173ffffffffffffffffffffffffffffffffffffffff021916908373ffffffffffffffffffffffffffffffffffffffff160217905550808273ffffffffffffffffffffffffffffffffffffffff16610c56836106f4565b73ffffffffffffffffffffffffffffffffffffffff167f8c5be1e5ebec7d5bd14f71427d1e84f3dd0314c0f7b2291e5b200ac8c7c3b92560405160405180910390a45050565b600080610ca8836106f4565b90508073ffffffffffffffffffffffffffffffffffffffff168473ffffffffffffffffffffffffffffffffffffffff161480610cea5750610ce98185610a92565b5b80610d2857508373ffffffffffffffffffffffffffffffffffffffff16610d1084610517565b73ffffffffffffffffffffffffffffffffffffffff16145b91505092915050565b8273ffffffffffffffffffffffffffffffffffffffff16610d51826106f4565b73ffffffffffffffffffffffffffffffffffffffff1614610da7576040517f08c379a0000000000000000000000000000000000000000000000000000000008152600401610d9e90612544565b60405180910390fd5b600073ffffffffffffffffffffffffffffffffffffffff168273ffffffffffffffffffffffffffffffffffffffff1603610e16576040517f08c379a0000000000000000000000000000000000000000000000000000000008152600401610e0d906125d6565b60405180910390fd5b610e23838383600161159d565b8273ffffffffffffffffffffffffffffffffffffffff16610e43826106f4565b73ffffffffffffffffffffffffffffffffffffffff1614610e99576040517f08c379a0000000000000000000000000000000000000000000000000000000008152600401610e9090612544565b60405180910390fd5b6004600082815260200190815260200160002060006101000a81549073ffffffffffffffffffffffffffffffffffffffff02191690556001600360008573ffffffffffffffffffffffffffffffffffffffff1673ffffffffffffffffffffffffffffffffffffffff168152602001908152602001600020600082825403925050819055506001600360008473ffffffffffffffffffffffffffffffffffffffff1673ffffffffffffffffffffffffffffffffffffffff16815260200190815260200160002060008282540192505081905550816002600083815260200190815260200160002060006101000a81548173ffffffffffffffffffffffffffffffffffffffff021916908373ffffffffffffffffffffffffffffffffffffffff160217905550808273ffffffffffffffffffffffffffffffffffffffff168473ffffffffffffffffffffffffffffffffffffffff167fddf252ad1be2c89b69c2b068fc378daa952ba7f163c4a11628f55a4df523b3ef60405160405180910390a461102583838360016116c3565b505050565b60006002600083815260200190815260200160002060009054906101000a900473ffffffffffffffffffffffffffffffffffffffff169050919050565b6001816000016000828254019250508190555050565b600081600001549050919050565b600073ffffffffffffffffffffffffffffffffffffffff168273ffffffffffffffffffffffffffffffffffffffff16036110fa576040517f08c379a00000000000000000000000000000000000000000000000000000000081526004016110f190612642565b60405180910390fd5b6111038161155c565b15611143576040517f08c379a000000000000000000000000000000000000000000000000000000000815260040161113a906126ae565b60405180910390fd5b61115160008383600161159d565b61115a8161155c565b1561119a576040517f08c379a0000000000000000000000000000000000000000000000000000000008152600401611191906126ae565b60405180910390fd5b6001600360008473ffffffffffffffffffffffffffffffffffffffff1673ffffffffffffffffffffffffffffffffffffffff16815260200190815260200160002060008282540192505081905550816002600083815260200190815260200160002060006101000a81548173ffffffffffffffffffffffffffffffffffffffff021916908373ffffffffffffffffffffffffffffffffffffffff160217905550808273ffffffffffffffffffffffffffffffffffffffff16600073ffffffffffffffffffffffffffffffffffffffff167fddf252ad1be2c89b69c2b068fc378daa952ba7f163c4a11628f55a4df523b3ef60405160405180910390a46112a46000838360016116c3565b5050565b6112b18261155c565b6112f0576040517f08c379a00000000000000000000000000000000000000000000000000000000081526004016112e790612740565b60405180910390fd5b80600660008481526020019081526020016000209081611310919061290c565b505050565b8173ffffffffffffffffffffffffffffffffffffffff168373ffffffffffffffffffffffffffffffffffffffff1603611383576040517f08c379a000000000000000000000000000000000000000000000000000000000815260040161137a90612a2a565b60405180910390fd5b80600560008573ffffffffffffffffffffffffffffffffffffffff1673ffffffffffffffffffffffffffffffffffffffff16815260200190815260200160002060008473ffffffffffffffffffffffffffffffffffffffff1673ffffffffffffffffffffffffffffffffffffffff16815260200190815260200160002060006101000a81548160ff0219169083151502179055508173ffffffffffffffffffffffffffffffffffffffff168373ffffffffffffffffffffffffffffffffffffffff167f17307eab39ab6107e8899845ad3d59bd9653f200f220920489ca2b5937696c31836040516114749190611b48565b60405180910390a3505050565b61148c848484610d31565b611498848484846116c9565b6114d7576040517f08c379a00000000000000000000000000000000000000000000000000000000081526004016114ce90612abc565b60405180910390fd5b50505050565b606060405180602001604052806000815250905090565b60606114ff82610b90565b60006115096114dd565b905060008151116115295760405180602001604052806000815250611554565b8061153384611850565b6040516020016115449291906124ae565b6040516020818303038152906040525b915050919050565b60008073ffffffffffffffffffffffffffffffffffffffff1661157e8361102a565b73ffffffffffffffffffffffffffffffffffffffff1614159050919050565b60018111156116bd57600073ffffffffffffffffffffffffffffffffffffffff168473ffffffffffffffffffffffffffffffffffffffff16146116315780600360008673ffffffffffffffffffffffffffffffffffffffff1673ffffffffffffffffffffffffffffffffffffffff16815260200190815260200160002060008282546116299190612b0b565b925050819055505b600073ffffffffffffffffffffffffffffffffffffffff168373ffffffffffffffffffffffffffffffffffffffff16146116bc5780600360008573ffffffffffffffffffffffffffffffffffffffff1673ffffffffffffffffffffffffffffffffffffffff16815260200190815260200160002060008282546116b49190612b3f565b925050819055505b5b50505050565b50505050565b60006116ea8473ffffffffffffffffffffffffffffffffffffffff1661191e565b15611843578373ffffffffffffffffffffffffffffffffffffffff1663150b7a02611713610bdb565b8786866040518563ffffffff1660e01b81526004016117359493929190612bc8565b6020604051808303816000875af192505050801561177157506040513d601f19601f8201168201806040525081019061176e9190612c29565b60015b6117f3573d80600081146117a1576040519150601f19603f3d011682016040523d82523d6000602084013e6117a6565b606091505b5060008151036117eb576040517f08c379a00000000000000000000000000000000000000000000000000000000081526004016117e290612abc565b60405180910390fd5b805181602001fd5b63150b7a0260e01b7bffffffffffffffffffffffffffffffffffffffffffffffffffffffff1916817bffffffffffffffffffffffffffffffffffffffffffffffffffffffff191614915050611848565b600190505b949350505050565b60606000600161185f84611941565b01905060008167ffffffffffffffff81111561187e5761187d611d9d565b5b6040519080825280601f01601f1916602001820160405280156118b05781602001600182028036833780820191505090505b509050600082602001820190505b600115611913578080600190039150507f3031323334353637383961626364656600000000000000000000000000000000600a86061a8153600a858161190757611906612c56565b5b049450600085036118be575b819350505050919050565b6000808273ffffffffffffffffffffffffffffffffffffffff163b119050919050565b600080600090507a184f03e93ff9f4daa797ed6e38ed64bf6a1f010000000000000000831061199f577a184f03e93ff9f4daa797ed6e38ed64bf6a1f010000000000000000838161199557611994612c56565b5b0492506040810190505b6d04ee2d6d415b85acef810000000083106119dc576d04ee2d6d415b85acef810000000083816119d2576119d1612c56565b5b0492506020810190505b662386f26fc100008310611a0b57662386f26fc100008381611a0157611a00612c56565b5b0492506010810190505b6305f5e1008310611a34576305f5e1008381611a2a57611a29612c56565b5b0492506008810190505b6127108310611a59576127108381611a4f57611a4e612c56565b5b0492506004810190505b60648310611a7c5760648381611a7257611a71612c56565b5b0492506002810190505b600a8310611a8b576001810190505b80915050919050565b6000604051905090565b600080fd5b600080fd5b60007fffffffff0000000000000000000000000000000000000000000000000000000082169050919050565b611add81611aa8565b8114611ae857600080fd5b50565b600081359050611afa81611ad4565b92915050565b600060208284031215611b1657611b15611a9e565b5b6000611b2484828501611aeb565b91505092915050565b60008115159050919050565b611b4281611b2d565b82525050565b6000602082019050611b5d6000830184611b39565b92915050565b600081519050919050565b600082825260208201905092915050565b60005b83811015611b9d578082015181840152602081019050611b82565b60008484015250505050565b6000601f19601f8301169050919050565b6000611bc582611b63565b611bcf8185611b6e565b9350611bdf818560208601611b7f565b611be881611ba9565b840191505092915050565b60006020820190508181036000830152611c0d8184611bba565b905092915050565b6000819050919050565b611c2881611c15565b8114611c3357600080fd5b50565b600081359050611c4581611c1f565b92915050565b600060208284031215611c6157611c60611a9e565b5b6000611c6f84828501611c36565b91505092915050565b600073ffffffffffffffffffffffffffffffffffffffff82169050919050565b6000611ca382611c78565b9050919050565b611cb381611c98565b82525050565b6000602082019050611cce6000830184611caa565b92915050565b611cdd81611c98565b8114611ce857600080fd5b50565b600081359050611cfa81611cd4565b92915050565b60008060408385031215611d1757611d16611a9e565b5b6000611d2585828601611ceb565b9250506020611d3685828601611c36565b9150509250929050565b600080600060608486031215611d5957611d58611a9e565b5b6000611d6786828701611ceb565b9350506020611d7886828701611ceb565b9250506040611d8986828701611c36565b9150509250925092565b600080fd5b600080fd5b7f4e487b7100000000000000000000000000000000000000000000000000000000600052604160045260246000fd5b611dd582611ba9565b810181811067ffffffffffffffff82111715611df457611df3611d9d565b5b80604052505050565b6000611e07611a94565b9050611e138282611dcc565b919050565b600067ffffffffffffffff821115611e3357611e32611d9d565b5b611e3c82611ba9565b9050602081019050919050565b82818337600083830152505050565b6000611e6b611e6684611e18565b611dfd565b905082815260208101848484011115611e8757611e86611d98565b5b611e92848285611e49565b509392505050565b600082601f830112611eaf57611eae611d93565b5b8135611ebf848260208601611e58565b91505092915050565b600080600060608486031215611ee157611ee0611a9e565b5b600084013567ffffffffffffffff811115611eff57611efe611aa3565b5b611f0b86828701611e9a565b9350506020611f1c86828701611ceb565b9250506040611f2d86828701611ceb565b9150509250925092565b611f4081611c15565b82525050565b6000602082019050611f5b6000830184611f37565b92915050565b600060208284031215611f7757611f76611a9e565b5b6000611f8584828501611ceb565b91505092915050565b611f9781611b2d565b8114611fa257600080fd5b50565b600081359050611fb481611f8e565b92915050565b60008060408385031215611fd157611fd0611a9e565b5b6000611fdf85828601611ceb565b9250506020611ff085828601611fa5565b9150509250929050565b600067ffffffffffffffff82111561201557612014611d9d565b5b61201e82611ba9565b9050602081019050919050565b600061203e61203984611ffa565b611dfd565b90508281526020810184848401111561205a57612059611d98565b5b612065848285611e49565b509392505050565b600082601f83011261208257612081611d93565b5b813561209284826020860161202b565b91505092915050565b600080600080608085870312156120b5576120b4611a9e565b5b60006120c387828801611ceb565b94505060206120d487828801611ceb565b93505060406120e587828801611c36565b925050606085013567ffffffffffffffff81111561210657612105611aa3565b5b6121128782880161206d565b91505092959194509250565b6000806040838503121561213557612134611a9e565b5b600061214385828601611ceb565b925050602061215485828601611ceb565b9150509250929050565b7f4e487b7100000000000000000000000000000000000000000000000000000000600052602260045260246000fd5b600060028204905060018216806121a557607f821691505b6020821081036121b8576121b761215e565b5b50919050565b7f4552433732313a20617070726f76616c20746f2063757272656e74206f776e6560008201527f7200000000000000000000000000000000000000000000000000000000000000602082015250565b600061221a602183611b6e565b9150612225826121be565b604082019050919050565b600060208201905081810360008301526122498161220d565b9050919050565b7f4552433732313a20617070726f76652063616c6c6572206973206e6f7420746f60008201527f6b656e206f776e6572206f7220617070726f76656420666f7220616c6c000000602082015250565b60006122ac603d83611b6e565b91506122b782612250565b604082019050919050565b600060208201905081810360008301526122db8161229f565b9050919050565b7f4552433732313a2063616c6c6572206973206e6f7420746f6b656e206f776e6560008201527f72206f7220617070726f76656400000000000000000000000000000000000000602082015250565b600061233e602d83611b6e565b9150612349826122e2565b604082019050919050565b6000602082019050818103600083015261236d81612331565b9050919050565b7f4552433732313a20696e76616c696420746f6b656e2049440000000000000000600082015250565b60006123aa601883611b6e565b91506123b582612374565b602082019050919050565b600060208201905081810360008301526123d98161239d565b9050919050565b7f4552433732313a2061646472657373207a65726f206973206e6f74206120766160008201527f6c6964206f776e65720000000000000000000000000000000000000000000000602082015250565b600061243c602983611b6e565b9150612447826123e0565b604082019050919050565b6000602082019050818103600083015261246b8161242f565b9050919050565b600081905092915050565b600061248882611b63565b6124928185612472565b93506124a2818560208601611b7f565b80840191505092915050565b60006124ba828561247d565b91506124c6828461247d565b91508190509392505050565b7f4552433732313a207472616e736665722066726f6d20696e636f72726563742060008201527f6f776e6572000000000000000000000000000000000000000000000000000000602082015250565b600061252e602583611b6e565b9150612539826124d2565b604082019050919050565b6000602082019050818103600083015261255d81612521565b9050919050565b7f4552433732313a207472616e7366657220746f20746865207a65726f2061646460008201527f7265737300000000000000000000000000000000000000000000000000000000602082015250565b60006125c0602483611b6e565b91506125cb82612564565b604082019050919050565b600060208201905081810360008301526125ef816125b3565b9050919050565b7f4552433732313a206d696e7420746f20746865207a65726f2061646472657373600082015250565b600061262c602083611b6e565b9150612637826125f6565b602082019050919050565b6000602082019050818103600083015261265b8161261f565b9050919050565b7f4552433732313a20746f6b656e20616c7265616479206d696e74656400000000600082015250565b6000612698601c83611b6e565b91506126a382612662565b602082019050919050565b600060208201905081810360008301526126c78161268b565b9050919050565b7f45524337323155524953746f726167653a2055524920736574206f66206e6f6e60008201527f6578697374656e7420746f6b656e000000000000000000000000000000000000602082015250565b600061272a602e83611b6e565b9150612735826126ce565b604082019050919050565b600060208201905081810360008301526127598161271d565b9050919050565b60008190508160005260206000209050919050565b60006020601f8301049050919050565b600082821b905092915050565b6000600883026127c27fffffffffffffffffffffffffffffffffffffffffffffffffffffffffffffffff82612785565b6127cc8683612785565b95508019841693508086168417925050509392505050565b6000819050919050565b60006128096128046127ff84611c15565b6127e4565b611c15565b9050919050565b6000819050919050565b612823836127ee565b61283761282f82612810565b848454612792565b825550505050565b600090565b61284c61283f565b61285781848461281a565b505050565b5b8181101561287b57612870600082612844565b60018101905061285d565b5050565b601f8211156128c05761289181612760565b61289a84612775565b810160208510156128a9578190505b6128bd6128b585612775565b83018261285c565b50505b505050565b600082821c905092915050565b60006128e3600019846008026128c5565b1980831691505092915050565b60006128fc83836128d2565b9150826002028217905092915050565b61291582611b63565b67ffffffffffffffff81111561292e5761292d611d9d565b5b612938825461218d565b61294382828561287f565b600060209050601f8311600181146129765760008415612964578287015190505b61296e85826128f0565b8655506129d6565b601f19841661298486612760565b60005b828110156129ac57848901518255600182019150602085019450602081019050612987565b868310156129c957848901516129c5601f8916826128d2565b8355505b6001600288020188555050505b505050505050565b7f4552433732313a20617070726f766520746f2063616c6c657200000000000000600082015250565b6000612a14601983611b6e565b9150612a1f826129de565b602082019050919050565b60006020820190508181036000830152612a4381612a07565b9050919050565b7f4552433732313a207472616e7366657220746f206e6f6e20455243373231526560008201527f63656976657220696d706c656d656e7465720000000000000000000000000000602082015250565b6000612aa6603283611b6e565b9150612ab182612a4a565b604082019050919050565b60006020820190508181036000830152612ad581612a99565b9050919050565b7f4e487b7100000000000000000000000000000000000000000000000000000000600052601160045260246000fd5b6000612b1682611c15565b9150612b2183611c15565b9250828203905081811115612b3957612b38612adc565b5b92915050565b6000612b4a82611c15565b9150612b5583611c15565b9250828201905080821115612b6d57612b6c612adc565b5b92915050565b600081519050919050565b600082825260208201905092915050565b6000612b9a82612b73565b612ba48185612b7e565b9350612bb4818560208601611b7f565b612bbd81611ba9565b840191505092915050565b6000608082019050612bdd6000830187611caa565b612bea6020830186611caa565b612bf76040830185611f37565b8181036060830152612c098184612b8f565b905095945050505050565b600081519050612c2381611ad4565b92915050565b600060208284031215612c3f57612c3e611a9e565b5b6000612c4d84828501612c14565b91505092915050565b7f4e487b7100000000000000000000000000000000000000000000000000000000600052601260045260246000fdfea26469706673582212209db7ac418401d557e818ddb49389dfe374b1ea28d59a2956035b5388b6972af764736f6c63430008110033",
  "linkReferences": {},
  "deployedLinkReferences": {}
}