{
  "_format": "hh-sol-artifact-1",
  "contractName": "NFTMarket",
  "sourceName": "contracts/NFTMarket.sol",
  "abi": [
    {
      "inputs": [],
      "stateMutability": "nonpayable",
      "type": "constructor"
    },
    {
      "anonymous": false,
      "inputs": [
        {
          "indexed": false,
          "internalType": "uint256",
          "name": "token",
          "type": "uint256"
        },
        {
          "indexed": false,
          "internalType": "address",
          "name": "owner",
          "type": "address"
        }
      ],
      "name": "CancelSell",
      "type": "event"
    },
    {
      "anonymous": false,
      "inputs": [
        {
          "indexed": false,
          "internalType": "address",
          "name": "nftContract",
          "type": "address"
        },
        {
          "indexed": false,
          "internalType": "address",
          "name": "owner",
          "type": "address"
        },
        {
          "indexed": false,
          "internalType": "address",
          "name": "creator",
          "type": "address"
        },
        {
          "indexed": false,
          "internalType": "uint256",
          "name": "token",
          "type": "uint256"
        },
        {
          "indexed": false,
          "internalType": "uint256",
          "name": "price",
          "type": "uint256"
        }
      ],
      "name": "Item",
      "type": "event"
    },
    {
      "anonymous": false,
      "inputs": [
        {
          "indexed": false,
          "internalType": "address",
          "name": "nftContract",
          "type": "address"
        },
        {
          "indexed": false,
          "internalType": "address",
          "name": "owner",
          "type": "address"
        },
        {
          "indexed": false,
          "internalType": "address",
          "name": "creator",
          "type": "address"
        },
        {
          "indexed": false,
          "internalType": "uint256",
          "name": "token",
          "type": "uint256"
        },
        {
          "indexed": false,
          "internalType": "uint256",
          "name": "price",
          "type": "uint256"
        }
      ],
      "name": "Sold",
      "type": "event"
    },
    {
      "inputs": [
        {
          "internalType": "uint256",
          "name": "",
          "type": "uint256"
        }
      ],
      "name": "Items",
      "outputs": [
        {
          "internalType": "enum NFTMarket.ListingStatus",
          "name": "status",
          "type": "uint8"
        },
        {
          "internalType": "address",
          "name": "nftContract",
          "type": "address"
        },
        {
          "internalType": "address payable",
          "name": "owner",
          "type": "address"
        },
        {
          "internalType": "address payable",
          "name": "creator",
          "type": "address"
        },
        {
          "internalType": "uint256",
          "name": "token",
          "type": "uint256"
        },
        {
          "internalType": "uint256",
          "name": "price",
          "type": "uint256"
        }
      ],
      "stateMutability": "view",
      "type": "function"
    },
    {
      "inputs": [
        {
          "internalType": "uint256",
          "name": "_tokenId",
          "type": "uint256"
        }
      ],
      "name": "buyItem",
      "outputs": [],
      "stateMutability": "payable",
      "type": "function"
    },
    {
      "inputs": [
        {
          "internalType": "uint256",
          "name": "_tokenId",
          "type": "uint256"
        }
      ],
      "name": "cancelSell",
      "outputs": [],
      "stateMutability": "nonpayable",
      "type": "function"
    },
    {
      "inputs": [],
      "name": "fetchCreatorItemsListed",
      "outputs": [
        {
          "components": [
            {
              "internalType": "enum NFTMarket.ListingStatus",
              "name": "status",
              "type": "uint8"
            },
            {
              "internalType": "address",
              "name": "nftContract",
              "type": "address"
            },
            {
              "internalType": "address payable",
              "name": "owner",
              "type": "address"
            },
            {
              "internalType": "address payable",
              "name": "creator",
              "type": "address"
            },
            {
              "internalType": "uint256",
              "name": "token",
              "type": "uint256"
            },
            {
              "internalType": "uint256",
              "name": "price",
              "type": "uint256"
            }
          ],
          "internalType": "struct NFTMarket._Item[]",
          "name": "",
          "type": "tuple[]"
        }
      ],
      "stateMutability": "view",
      "type": "function"
    },
    {
      "inputs": [],
      "name": "fetchMarketItems",
      "outputs": [
        {
          "components": [
            {
              "internalType": "enum NFTMarket.ListingStatus",
              "name": "status",
              "type": "uint8"
            },
            {
              "internalType": "address",
              "name": "nftContract",
              "type": "address"
            },
            {
              "internalType": "address payable",
              "name": "owner",
              "type": "address"
            },
            {
              "internalType": "address payable",
              "name": "creator",
              "type": "address"
            },
            {
              "internalType": "uint256",
              "name": "token",
              "type": "uint256"
            },
            {
              "internalType": "uint256",
              "name": "price",
              "type": "uint256"
            }
          ],
          "internalType": "struct NFTMarket._Item[]",
          "name": "",
          "type": "tuple[]"
        }
      ],
      "stateMutability": "view",
      "type": "function"
    },
    {
      "inputs": [],
      "name": "fetchOwnerItemsListed",
      "outputs": [
        {
          "components": [
            {
              "internalType": "enum NFTMarket.ListingStatus",
              "name": "status",
              "type": "uint8"
            },
            {
              "internalType": "address",
              "name": "nftContract",
              "type": "address"
            },
            {
              "internalType": "address payable",
              "name": "owner",
              "type": "address"
            },
            {
              "internalType": "address payable",
              "name": "creator",
              "type": "address"
            },
            {
              "internalType": "uint256",
              "name": "token",
              "type": "uint256"
            },
            {
              "internalType": "uint256",
              "name": "price",
              "type": "uint256"
            }
          ],
          "internalType": "struct NFTMarket._Item[]",
          "name": "",
          "type": "tuple[]"
        }
      ],
      "stateMutability": "view",
      "type": "function"
    },
    {
      "inputs": [],
      "name": "mintingCost",
      "outputs": [
        {
          "internalType": "uint256",
          "name": "",
          "type": "uint256"
        }
      ],
      "stateMutability": "view",
      "type": "function"
    },
    {
      "inputs": [
        {
          "internalType": "string",
          "name": "uri",
          "type": "string"
        },
        {
          "internalType": "uint256",
          "name": "_price",
          "type": "uint256"
        },
        {
          "internalType": "address",
          "name": "_nftContract",
          "type": "address"
        }
      ],
      "name": "sellItem",
      "outputs": [],
      "stateMutability": "payable",
      "type": "function"
    }
  ],
  "bytecode": "0x6080604052655af3107a400060045534801561001a57600080fd5b50600160008190555033600360006101000a81548173ffffffffffffffffffffffffffffffffffffffff021916908373ffffffffffffffffffffffffffffffffffffffff16021790555061226b806100736000396000f3fe60806040526004361061007b5760003560e01c8063ae8ef20a1161004e578063ae8ef20a14610141578063e7fb74c71461015d578063ebf98abf14610179578063fc50b5d3146101a45761007b565b806307c9cd45146100805780630f08efe0146100a957806317b47cc4146100d45780635c90fc6614610116575b600080fd5b34801561008c57600080fd5b506100a760048036038101906100a2919061171b565b6101cf565b005b3480156100b557600080fd5b506100be610473565b6040516100cb919061195a565b60405180910390f35b3480156100e057600080fd5b506100fb60048036038101906100f6919061171b565b610751565b60405161010d969594939291906119b8565b60405180910390f35b34801561012257600080fd5b5061012b6107fa565b604051610138919061195a565b60405180910390f35b61015b60048036038101906101569190611b8b565b610b5c565b005b6101776004803603810190610172919061171b565b610ef5565b005b34801561018557600080fd5b5061018e611262565b60405161019b9190611bfa565b60405180910390f35b3480156101b057600080fd5b506101b9611268565b6040516101c6919061195a565b60405180910390f35b60006005600083815260200190815260200160002090508060010160009054906101000a900473ffffffffffffffffffffffffffffffffffffffff1673ffffffffffffffffffffffffffffffffffffffff163373ffffffffffffffffffffffffffffffffffffffff16148061029357508060020160009054906101000a900473ffffffffffffffffffffffffffffffffffffffff1673ffffffffffffffffffffffffffffffffffffffff163373ffffffffffffffffffffffffffffffffffffffff16145b6102d2576040517f08c379a00000000000000000000000000000000000000000000000000000000081526004016102c990611c72565b60405180910390fd5b600060028111156102e6576102e5611774565b5b8160000160009054906101000a900460ff16600281111561030a57610309611774565b5b1461034a576040517f08c379a000000000000000000000000000000000000000000000000000000000815260040161034190611cde565b60405180910390fd5b60028160000160006101000a81548160ff0219169083600281111561037257610371611774565b5b02179055508060000160019054906101000a900473ffffffffffffffffffffffffffffffffffffffff1673ffffffffffffffffffffffffffffffffffffffff166323b872dd303384600301546040518463ffffffff1660e01b81526004016103dc93929190611cfe565b600060405180830381600087803b1580156103f657600080fd5b505af115801561040a573d6000803e3d6000fd5b505050507f9a7ead5b5e3d6b8d3e88f6057599b7eecec51b2aad38c25b8141deaec6dcabc381600301548260010160009054906101000a900473ffffffffffffffffffffffffffffffffffffffff16604051610467929190611d94565b60405180910390a15050565b6060600061048160016115ca565b9050600061048f60026115ca565b61049960016115ca565b6104a39190611dec565b90506000808267ffffffffffffffff8111156104c2576104c1611a34565b5b6040519080825280602002602001820160405280156104fb57816020015b6104e8611647565b8152602001906001900390816104e05790505b50905060005b84811015610746573073ffffffffffffffffffffffffffffffffffffffff16600560006001846105319190611e20565b815260200190815260200160002060010160009054906101000a900473ffffffffffffffffffffffffffffffffffffffff1673ffffffffffffffffffffffffffffffffffffffff160361073357600060018261058d9190611e20565b90506000600560008381526020019081526020016000209050806040518060c00160405290816000820160009054906101000a900460ff1660028111156105d7576105d6611774565b5b60028111156105e9576105e8611774565b5b81526020016000820160019054906101000a900473ffffffffffffffffffffffffffffffffffffffff1673ffffffffffffffffffffffffffffffffffffffff1673ffffffffffffffffffffffffffffffffffffffff1681526020016001820160009054906101000a900473ffffffffffffffffffffffffffffffffffffffff1673ffffffffffffffffffffffffffffffffffffffff1673ffffffffffffffffffffffffffffffffffffffff1681526020016002820160009054906101000a900473ffffffffffffffffffffffffffffffffffffffff1673ffffffffffffffffffffffffffffffffffffffff1673ffffffffffffffffffffffffffffffffffffffff1681526020016003820154815260200160048201548152505084868151811061071657610715611e54565b5b602002602001018190525060018561072e9190611e20565b945050505b808061073e90611e83565b915050610501565b508094505050505090565b60056020528060005260406000206000915090508060000160009054906101000a900460ff16908060000160019054906101000a900473ffffffffffffffffffffffffffffffffffffffff16908060010160009054906101000a900473ffffffffffffffffffffffffffffffffffffffff16908060020160009054906101000a900473ffffffffffffffffffffffffffffffffffffffff16908060030154908060040154905086565b6060600061080860016115ca565b905060008060005b838110156108b0573373ffffffffffffffffffffffffffffffffffffffff16600560006001846108409190611e20565b815260200190815260200160002060010160009054906101000a900473ffffffffffffffffffffffffffffffffffffffff1673ffffffffffffffffffffffffffffffffffffffff160361089d5760018361089a9190611e20565b92505b80806108a890611e83565b915050610810565b5060008267ffffffffffffffff8111156108cd576108cc611a34565b5b60405190808252806020026020018201604052801561090657816020015b6108f3611647565b8152602001906001900390816108eb5790505b50905060005b84811015610b51573373ffffffffffffffffffffffffffffffffffffffff166005600060018461093c9190611e20565b815260200190815260200160002060010160009054906101000a900473ffffffffffffffffffffffffffffffffffffffff1673ffffffffffffffffffffffffffffffffffffffff1603610b3e5760006001826109989190611e20565b90506000600560008381526020019081526020016000209050806040518060c00160405290816000820160009054906101000a900460ff1660028111156109e2576109e1611774565b5b60028111156109f4576109f3611774565b5b81526020016000820160019054906101000a900473ffffffffffffffffffffffffffffffffffffffff1673ffffffffffffffffffffffffffffffffffffffff1673ffffffffffffffffffffffffffffffffffffffff1681526020016001820160009054906101000a900473ffffffffffffffffffffffffffffffffffffffff1673ffffffffffffffffffffffffffffffffffffffff1673ffffffffffffffffffffffffffffffffffffffff1681526020016002820160009054906101000a900473ffffffffffffffffffffffffffffffffffffffff1673ffffffffffffffffffffffffffffffffffffffff1673ffffffffffffffffffffffffffffffffffffffff16815260200160038201548152602001600482015481525050848681518110610b2157610b20611e54565b5b6020026020010181905250600185610b399190611e20565b945050505b8080610b4990611e83565b91505061090c565b508094505050505090565b610b646115d8565b60008211610ba7576040517f08c379a0000000000000000000000000000000000000000000000000000000008152600401610b9e90611f17565b60405180910390fd5b6004543414610beb576040517f08c379a0000000000000000000000000000000000000000000000000000000008152600401610be290611fa9565b60405180910390fd5b610bf56001611627565b6000610c0160016115ca565b905060008273ffffffffffffffffffffffffffffffffffffffff16636af812828630336040518463ffffffff1660e01b8152600401610c4293929190612037565b6020604051808303816000875af1158015610c61573d6000803e3d6000fd5b505050506040513d601f19601f82011682018060405250810190610c85919061208a565b90506040518060c0016040528060006002811115610ca657610ca5611774565b5b81526020018473ffffffffffffffffffffffffffffffffffffffff1681526020013073ffffffffffffffffffffffffffffffffffffffff1681526020013373ffffffffffffffffffffffffffffffffffffffff168152602001828152602001858152506005600084815260200190815260200160002060008201518160000160006101000a81548160ff02191690836002811115610d4757610d46611774565b5b021790555060208201518160000160016101000a81548173ffffffffffffffffffffffffffffffffffffffff021916908373ffffffffffffffffffffffffffffffffffffffff16021790555060408201518160010160006101000a81548173ffffffffffffffffffffffffffffffffffffffff021916908373ffffffffffffffffffffffffffffffffffffffff16021790555060608201518160020160006101000a81548173ffffffffffffffffffffffffffffffffffffffff021916908373ffffffffffffffffffffffffffffffffffffffff1602179055506080820151816003015560a082015181600401559050508273ffffffffffffffffffffffffffffffffffffffff166323b872dd3330846040518463ffffffff1660e01b8152600401610e7593929190611cfe565b600060405180830381600087803b158015610e8f57600080fd5b505af1158015610ea3573d6000803e3d6000fd5b505050507f14119be79c3c72a43e018782c3768e0f129fd3c6b43e7fd40c621cfd78c551808330338488604051610ede9594939291906120b7565b60405180910390a15050610ef061163d565b505050565b610efd6115d8565b600060056000838152602001908152602001600020905034816004015414610f5a576040517f08c379a0000000000000000000000000000000000000000000000000000000008152600401610f5190612156565b60405180910390fd5b338160010160006101000a81548173ffffffffffffffffffffffffffffffffffffffff021916908373ffffffffffffffffffffffffffffffffffffffff16021790555060018160000160006101000a81548160ff02191690836002811115610fc557610fc4611774565b5b021790555060008160020160009054906101000a900473ffffffffffffffffffffffffffffffffffffffff169050600073ffffffffffffffffffffffffffffffffffffffff168260010160009054906101000a900473ffffffffffffffffffffffffffffffffffffffff1673ffffffffffffffffffffffffffffffffffffffff1603611073578160010160009054906101000a900473ffffffffffffffffffffffffffffffffffffffff1690505b8073ffffffffffffffffffffffffffffffffffffffff166108fc349081150290604051600060405180830381858888f193505050501580156110b9573d6000803e3d6000fd5b506110c46002611627565b8160000160019054906101000a900473ffffffffffffffffffffffffffffffffffffffff1673ffffffffffffffffffffffffffffffffffffffff166323b872dd303385600301546040518463ffffffff1660e01b815260040161112993929190611cfe565b600060405180830381600087803b15801561114357600080fd5b505af1158015611157573d6000803e3d6000fd5b50505050600360009054906101000a900473ffffffffffffffffffffffffffffffffffffffff1673ffffffffffffffffffffffffffffffffffffffff166108fc6004549081150290604051600060405180830381858888f193505050501580156111c5573d6000803e3d6000fd5b507f5764dbcef91eb6f946584f4ea671217c686fa7e858ce4f9f42d08422b86556a98260000160019054906101000a900473ffffffffffffffffffffffffffffffffffffffff16338460020160009054906101000a900473ffffffffffffffffffffffffffffffffffffffff168560030154866004015460405161124d959493929190612176565b60405180910390a1505061125f61163d565b50565b60045481565b6060600061127660016115ca565b905060008060005b8381101561131e573373ffffffffffffffffffffffffffffffffffffffff16600560006001846112ae9190611e20565b815260200190815260200160002060020160009054906101000a900473ffffffffffffffffffffffffffffffffffffffff1673ffffffffffffffffffffffffffffffffffffffff160361130b576001836113089190611e20565b92505b808061131690611e83565b91505061127e565b5060008267ffffffffffffffff81111561133b5761133a611a34565b5b60405190808252806020026020018201604052801561137457816020015b611361611647565b8152602001906001900390816113595790505b50905060005b848110156115bf573373ffffffffffffffffffffffffffffffffffffffff16600560006001846113aa9190611e20565b815260200190815260200160002060020160009054906101000a900473ffffffffffffffffffffffffffffffffffffffff1673ffffffffffffffffffffffffffffffffffffffff16036115ac5760006001826114069190611e20565b90506000600560008381526020019081526020016000209050806040518060c00160405290816000820160009054906101000a900460ff1660028111156114505761144f611774565b5b600281111561146257611461611774565b5b81526020016000820160019054906101000a900473ffffffffffffffffffffffffffffffffffffffff1673ffffffffffffffffffffffffffffffffffffffff1673ffffffffffffffffffffffffffffffffffffffff1681526020016001820160009054906101000a900473ffffffffffffffffffffffffffffffffffffffff1673ffffffffffffffffffffffffffffffffffffffff1673ffffffffffffffffffffffffffffffffffffffff1681526020016002820160009054906101000a900473ffffffffffffffffffffffffffffffffffffffff1673ffffffffffffffffffffffffffffffffffffffff1673ffffffffffffffffffffffffffffffffffffffff1681526020016003820154815260200160048201548152505084868151811061158f5761158e611e54565b5b60200260200101819052506001856115a79190611e20565b945050505b80806115b790611e83565b91505061137a565b508094505050505090565b600081600001549050919050565b60026000540361161d576040517f08c379a000000000000000000000000000000000000000000000000000000000815260040161161490612215565b60405180910390fd5b6002600081905550565b6001816000016000828254019250508190555050565b6001600081905550565b6040518060c001604052806000600281111561166657611665611774565b5b8152602001600073ffffffffffffffffffffffffffffffffffffffff168152602001600073ffffffffffffffffffffffffffffffffffffffff168152602001600073ffffffffffffffffffffffffffffffffffffffff16815260200160008152602001600081525090565b6000604051905090565b600080fd5b600080fd5b6000819050919050565b6116f8816116e5565b811461170357600080fd5b50565b600081359050611715816116ef565b92915050565b600060208284031215611731576117306116db565b5b600061173f84828501611706565b91505092915050565b600081519050919050565b600082825260208201905092915050565b6000819050602082019050919050565b7f4e487b7100000000000000000000000000000000000000000000000000000000600052602160045260246000fd5b600381106117b4576117b3611774565b5b50565b60008190506117c5826117a3565b919050565b60006117d5826117b7565b9050919050565b6117e5816117ca565b82525050565b600073ffffffffffffffffffffffffffffffffffffffff82169050919050565b6000611816826117eb565b9050919050565b6118268161180b565b82525050565b6000611837826117eb565b9050919050565b6118478161182c565b82525050565b611856816116e5565b82525050565b60c08201600082015161187260008501826117dc565b506020820151611885602085018261181d565b506040820151611898604085018261183e565b5060608201516118ab606085018261183e565b5060808201516118be608085018261184d565b5060a08201516118d160a085018261184d565b50505050565b60006118e3838361185c565b60c08301905092915050565b6000602082019050919050565b600061190782611748565b6119118185611753565b935061191c83611764565b8060005b8381101561194d57815161193488826118d7565b975061193f836118ef565b925050600181019050611920565b5085935050505092915050565b6000602082019050818103600083015261197481846118fc565b905092915050565b611985816117ca565b82525050565b6119948161180b565b82525050565b6119a38161182c565b82525050565b6119b2816116e5565b82525050565b600060c0820190506119cd600083018961197c565b6119da602083018861198b565b6119e7604083018761199a565b6119f4606083018661199a565b611a0160808301856119a9565b611a0e60a08301846119a9565b979650505050505050565b600080fd5b600080fd5b6000601f19601f8301169050919050565b7f4e487b7100000000000000000000000000000000000000000000000000000000600052604160045260246000fd5b611a6c82611a23565b810181811067ffffffffffffffff82111715611a8b57611a8a611a34565b5b80604052505050565b6000611a9e6116d1565b9050611aaa8282611a63565b919050565b600067ffffffffffffffff821115611aca57611ac9611a34565b5b611ad382611a23565b9050602081019050919050565b82818337600083830152505050565b6000611b02611afd84611aaf565b611a94565b905082815260208101848484011115611b1e57611b1d611a1e565b5b611b29848285611ae0565b509392505050565b600082601f830112611b4657611b45611a19565b5b8135611b56848260208601611aef565b91505092915050565b611b688161180b565b8114611b7357600080fd5b50565b600081359050611b8581611b5f565b92915050565b600080600060608486031215611ba457611ba36116db565b5b600084013567ffffffffffffffff811115611bc257611bc16116e0565b5b611bce86828701611b31565b9350506020611bdf86828701611706565b9250506040611bf086828701611b76565b9150509250925092565b6000602082019050611c0f60008301846119a9565b92915050565b600082825260208201905092915050565b7f4f6e6c79206f776e65722063616e2063616e63656c206c697374696e67000000600082015250565b6000611c5c601d83611c15565b9150611c6782611c26565b602082019050919050565b60006020820190508181036000830152611c8b81611c4f565b9050919050565b7f4c697374696e67206973206e6f74206163746976650000000000000000000000600082015250565b6000611cc8601583611c15565b9150611cd382611c92565b602082019050919050565b60006020820190508181036000830152611cf781611cbb565b9050919050565b6000606082019050611d13600083018661198b565b611d20602083018561198b565b611d2d60408301846119a9565b949350505050565b6000819050919050565b6000611d5a611d55611d50846117eb565b611d35565b6117eb565b9050919050565b6000611d6c82611d3f565b9050919050565b6000611d7e82611d61565b9050919050565b611d8e81611d73565b82525050565b6000604082019050611da960008301856119a9565b611db66020830184611d85565b9392505050565b7f4e487b7100000000000000000000000000000000000000000000000000000000600052601160045260246000fd5b6000611df7826116e5565b9150611e02836116e5565b9250828203905081811115611e1a57611e19611dbd565b5b92915050565b6000611e2b826116e5565b9150611e36836116e5565b9250828201905080821115611e4e57611e4d611dbd565b5b92915050565b7f4e487b7100000000000000000000000000000000000000000000000000000000600052603260045260246000fd5b6000611e8e826116e5565b91507fffffffffffffffffffffffffffffffffffffffffffffffffffffffffffffffff8203611ec057611ebf611dbd565b5b600182019050919050565b7f5072696365206d757374206265206174206c6561737420312077656900000000600082015250565b6000611f01601c83611c15565b9150611f0c82611ecb565b602082019050919050565b60006020820190508181036000830152611f3081611ef4565b9050919050565b7f5072696365206d75737420626520657175616c20746f206c697374696e67207060008201527f7269636500000000000000000000000000000000000000000000000000000000602082015250565b6000611f93602483611c15565b9150611f9e82611f37565b604082019050919050565b60006020820190508181036000830152611fc281611f86565b9050919050565b600081519050919050565b60005b83811015611ff2578082015181840152602081019050611fd7565b60008484015250505050565b600061200982611fc9565b6120138185611c15565b9350612023818560208601611fd4565b61202c81611a23565b840191505092915050565b600060608201905081810360008301526120518186611ffe565b9050612060602083018561198b565b61206d604083018461198b565b949350505050565b600081519050612084816116ef565b92915050565b6000602082840312156120a05761209f6116db565b5b60006120ae84828501612075565b91505092915050565b600060a0820190506120cc600083018861198b565b6120d96020830187611d85565b6120e66040830186611d85565b6120f360608301856119a9565b61210060808301846119a9565b9695505050505050565b7f5072696365206d75737420626520657175616c20746f204e4654207072696365600082015250565b6000612140602083611c15565b915061214b8261210a565b602082019050919050565b6000602082019050818103600083015261216f81612133565b9050919050565b600060a08201905061218b600083018861198b565b612198602083018761198b565b6121a56040830186611d85565b6121b260608301856119a9565b6121bf60808301846119a9565b9695505050505050565b7f5265656e7472616e637947756172643a207265656e7472616e742063616c6c00600082015250565b60006121ff601f83611c15565b915061220a826121c9565b602082019050919050565b6000602082019050818103600083015261222e816121f2565b905091905056fea2646970667358221220ca4648154c800b36113cc2ca319c8703abeea3c2c3e25e25d393cdd6882c2beb64736f6c63430008110033",
  "linkReferences": {},
  "deployedLinkReferences": {}
}